:020000040000FA
:10000000300400205D040000650400006704000067
:10001000690400006B0400006D0400000000000093
:100020000000000000000000000000006F0400005D
:10003000710400000000000073040000750400005B
:1000400077040000790400007B0400007D040000B8
:100050007F04000081040000830400008504000088
:100060008704000089040000000000000000000078
:100070000000000000000000000000000000000080
:100080000000000000000000000000000000000070
:100090000000000000000000000000000000000060
:1000A0000000000000000000000000000000000050
:1003C00000F002F800F03AF80AA090E8000C82442D
:1003D0008344AAF10107DA4501D100F02FF8AFF20A
:1003E000090EBAE80F0013F0010F18BFFB1A43F013
:1003F000010318470403000024030000103A24BF3F
:1004000078C878C1FAD8520724BF30C830C144BF79
:1004100004680C60704700000023002400250026BB
:10042000103A28BF78C1FBD8520728BF30C148BF57
:100430000B6070471FB51FBD10B510BDDFF80CD0A5
:10044000FFF7F8FF00F0BCF800F024F830040020BB
:1004500003B4FFF7F1FF03BC00F026F80B48804718
:100460000B480047FEE7FEE7FEE7FEE7FEE7FEE794
:10047000FEE7FEE7FEE7FEE7FEE7FEE7FEE7FEE754
:10048000FEE7FEE7FEE7FEE7FEE70000A10500004D
:10049000C103000010B50446AFF300802046BDE85C
:1004A0001040FFF7D5BF704701491820ABBEFEE7EB
:1004B000260002001548006800F01000144908608A
:1004C0004FF04020D0F8FC0300F00800114908600C
:1004D0004FF04020D0F8FC0300F004000E49086003
:1004E0000E48D0F8FC0300F008000D4908600B48E6
:1004F000D0F8FC0300F004000A4908600748D0F86F
:10050000FC0300F00200084908607047FC4300400B
:1005100010000020140000201800002000500240AD
:100520001C0000202000002024000020114800684A
:1005300040F021000F4908600F48006820F060007B
:100540000D4908600846006840F01C0008600B4830
:10055000006840F07C00094908600948006840F0E4
:100560000E00074908600748006840F00E00054982
:100570000860704708E60F40004400401C450040FA
:10058000005402401C55024000204FF0E021086159
:100590006FF07F4048610020886105200861704746
:1005A0000348044908600448044908607047000093
:1005B0000000000008ED00E040787D0128000020E8
:1005C00000B5FFF7E1FFFFF7B1FF4FF0E0208069D2
:1005D0000B49086003E000F019F8FFF76BFF0948CA
:1005E00000680A28F7DD4FF0E020806904490968B7
:1005F000081A20F07F4004490860002000BD000078
:1006000008000020040000200C000020364800688C
:10061000012811DA10203549086002203449C1F858
:10062000FC0334480068401C324908602E480068CA
:10063000401C2D49086056E02B48006802280CDA5F
:1006400008202A49086002202949C1F8FC032648ED
:100650000068401C2449086045E0234800680328DE
:100660000CDA04202149086002202149C1F8FC036A
:100670001D480068401C1C49086034E01A480068A6
:1006800004280CDA04201949086008201849C1F828
:10069000FC0315480068401C1349086023E0124819
:1006A000006805280BDA0420104908601049C1F8D9
:1006B000FC030D480068401C0B49086013E00A4821
:1006C000006806280CDA042008490860022008495E
:1006D000C1F8FC0304480068401C0349086002E0BC
:1006E000002001490860704700000020FC430040E2
:1006F0000050024004000020180700000000002005
:100700002C000000FC030000440700002C00002027
:1007100004040000180400000000000000000000B5
:1007200000000000000000000000000000000000C9
:1007300000000000000000000000000000000000B9
:0407400040787D017F
:04000005000003C133
:00000001FF
