:020000040000FA
:10000000080400205D04000065040000670400008F
:10001000690400006B0400006D0400000000000093
:100020000000000000000000000000006F0400005D
:10003000710400000000000073040000750400005B
:1000400077040000790400007B0400007D040000B8
:100050007F04000081040000830400008504000088
:100060008704000089040000000000000000000078
:100070000000000000000000000000000000000080
:100080000000000000000000000000000000000070
:100090000000000000000000000000000000000060
:1000A0000000000000000000000000000000000050
:1003C00000F002F800F03AF80AA090E8000C82442D
:1003D0008344AAF10107DA4501D100F02FF8AFF20A
:1003E000090EBAE80F0013F0010F18BFFB1A43F013
:1003F000010318476001000080010000103A24BF8B
:1004000078C878C1FAD8520724BF30C830C144BF79
:1004100004680C60704700000023002400250026BB
:10042000103A28BF78C1FBD8520728BF30C148BF57
:100430000B6070471FB51FBD10B510BDDFF80CD0A5
:10044000FFF7F8FF00F050F800F027F8080400204C
:1004500003B4FFF7F1FF03BC00F02AF80B48804714
:100460000B480047FEE7FEE7FEE7FEE7FEE7FEE794
:10047000FEE7FEE7FEE7FEE7FEE7FEE7FEE7FEE754
:10048000FEE7FEE7FEE7FEE7FEE70000BD04000032
:10049000C103000070477047704710B50446AFF3C2
:1004A00000802046BDE81040FFF7D2BF7047000033
:1004B00001491820ABBEFEE72600020003480449AC
:1004C000086004480449086070470000000000000C
:1004D00008ED00E040787D0100000020002100E0F0
:1004E000491C8142FCDB70472020154908600E2022
:1004F000144908601449086020E01248001F006891
:1005000040F002001149C1F8FC031148FFF7E6FF73
:100510000E48D0F8FC0340F004000C49C1F8FC037D
:100520000B48FFF7DBFF0948D0F8FC0340F0080058
:100530000649C1F8FC030648FFF7D0FFDDE70000DD
:1005400008E60F40005402401C5502400050024093
:100550008096980074050000000000200400000050
:10056000FC030000780500000400002004040000E3
:080570001804000040787D0131
:040000050000045D96
:00000001FF
