:020000040000FA
:10000000180400205D04000065040000670400007F
:10001000690400006B0400006D0400000000000093
:100020000000000000000000000000006F0400005D
:10003000710400000000000073040000750400005B
:1000400077040000790400007B0400007D040000B8
:100050007F04000081040000830400008504000088
:100060008704000089040000000000000000000078
:100070000000000000000000000000000000000080
:100080000000000000000000000000000000000070
:100090000000000000000000000000000000000060
:1000A0000000000000000000000000000000000050
:1003C00000F002F800F03AF80AA090E8000C82442D
:1003D0008344AAF10107DA4501D100F02FF8AFF20A
:1003E000090EBAE80F0013F0010F18BFFB1A43F013
:1003F000010318477402000094020000103A24BF61
:1004000078C878C1FAD8520724BF30C830C144BF79
:1004100004680C60704700000023002400250026BB
:10042000103A28BF78C1FBD8520728BF30C148BF57
:100430000B6070471FB51FBD10B510BDDFF80CD0A5
:10044000FFF7F8FF00F0DAF800F024F818040020B5
:1004500003B4FFF7F1FF03BC00F026F80B48804718
:100460000B480047FEE7FEE7FEE7FEE7FEE7FEE794
:10047000FEE7FEE7FEE7FEE7FEE7FEE7FEE7FEE754
:10048000FEE7FEE7FEE7FEE7FEE700007D05000071
:10049000C103000010B50446AFF300802046BDE85C
:1004A0001040FFF7D5BF704701491820ABBEFEE7EB
:1004B000260002001448006840F020001349C1F8EB
:1004C00008011348006820F0040011490860081D65
:1004D000006820F47060091D08600E48006840F054
:1004E00004000C4908600B482030006820F004002C
:1004F00008492031086006480C38006840F00400C4
:1005000003490C390860704708E10F4000E00F40D4
:1005100028550240005402400020014908607047FD
:10052000FC5302400420014908607047FC5302401C
:100530000948006840F00100074908600748006862
:1005400040F01C00054908600548006840F01C00A8
:10055000034908607047000008E60F40004400406F
:100560001C45004000204FF0E02108616FF07F4003
:1005700048610020886105200861704703480449EC
:10058000086004480449086070470000000000004B
:1005900008ED00E040787D011000002001460020B9
:1005A00027E0884209DA1022134B1A6000224FF02C
:1005B0004023C3F8FC23401C1BE04A00824209DDB3
:1005C00008220D4B1A6000224FF04023C3F8FC2391
:1005D000401C0EE001EB4102824209DD0422064B81
:1005E0001A6000224FF04023C3F8FC23401C00E0B7
:1005F00000E0D6E700BF7047FC4300400524FFF74A
:1006000059FFFFF795FFFFF7ADFF22E04FF0E02025
:10061000806910490860FFF785FF0F48006800F007
:1006200004000E4908602046FFF7B8FFFFF774FF8B
:100630000B48D0F8FC0300F00400084908604FF0B4
:10064000E020806903490968081A20F07F400549C5
:100650000860DBE704000020FC5302400C0000208F
:100660000050024008000020880600000000002022
:1006700014000000FC0300009C0600001400002091
:100680000404000018040000000000000000000046
:0C069000000000000000000040787D0128
:04000005000003C133
:00000001FF
