:020000040000FA
:10000000100400205D040000650400006704000087
:10001000690400006B0400006D0400000000000093
:100020000000000000000000000000006F0400005D
:10003000710400000000000073040000750400005B
:1000400077040000790400007B0400007D040000B8
:100050007F04000081040000830400008504000088
:100060008704000089040000000000000000000078
:100070000000000000000000000000000000000080
:100080000000000000000000000000000000000070
:100090000000000000000000000000000000000060
:1000A0000000000000000000000000000000000050
:1003C00000F002F800F03AF80AA090E8000C82442D
:1003D0008344AAF10107DA4501D100F02FF8AFF20A
:1003E000090EBAE80F0013F0010F18BFFB1A43F013
:1003F000010318472C0300004C030000103A24BFEF
:1004000078C878C1FAD8520724BF30C830C144BF79
:1004100004680C60704700000023002400250026BB
:10042000103A28BF78C1FBD8520728BF30C148BF57
:100430000B6070471FB51FBD10B510BDDFF80CD0A5
:10044000FFF7F8FF00F0F4F800F024F810040020A3
:1004500003B4FFF7F1FF03BC00F026F80B48804718
:100460000B480047FEE7FEE7FEE7FEE7FEE7FEE794
:10047000FEE7FEE7FEE7FEE7FEE7FEE7FEE7FEE754
:10048000FEE7FEE7FEE7FEE7FEE7000005050000E9
:10049000C103000010B50446AFF300802046BDE85C
:1004A0001040FFF7D5BF704701491820ABBEFEE7EB
:1004B000260002000F48006840F020000D49086047
:1004C0000D480E490860081D006840F01F00091D16
:1004D00008600E200A490860112008491039086098
:1004E00008600648001F006840F01F000349091F0C
:1004F0000860704708E60F404B434F4C20550240C0
:100500000054024003480449086004480449086054
:10051000704700000000000008ED00E040787D0119
:100520000C00002000B511E000F0C8F80C4800688D
:1005300001280BD10BA000F0B5F809480068C0F104
:100540000100074908600CA000F0ACF81048806971
:1005500000F010000028E7D10D480068C0B200BDCF
:10056000000000204E61736876696C6C652C205425
:100570004E200A0D00000000456E74657220722046
:100580006F722067206F7220623A200A0D0000000F
:1005900000C000401848006840F001001749C1F849
:1005A00004010846D0F8080140F00100C1F8080134
:1005B0001348006B20F0010011490863682048626D
:1005C0000B2088627020C86240F2013008630D4839
:1005D000006820F003000B4908600B48006840F0F9
:1005E00003000949086007480C38006840F0030020
:1005F00004490C390860704704E10F4000E00F40E7
:1006000000C00040284500402044004000BF04498D
:10061000896901F020010029F9D10149086070477A
:1006200000C00040002100E0491C8142FCDB704713
:10063000FFF7B0FFFFF73EFF23E012A000F032F813
:10064000FFF770FF04462046FFF7E0FF13A000F01D
:1006500029F8622C07D0672C09D0722C0BD102200C
:100660000F4908600BE004200D49086007E00820EE
:100670000B49086003E000200949086000BF00BF83
:1006800000BFDAE7456E7465722072206F722067D2
:10069000206F7220623A200A0D0000000A0D00004F
:1006A000FC53024000B5024603E012F8010BFFF7CD
:1006B000ADFF10780028F8D100BD000000B5144847
:1006C000006800F00100134908600846006880F0E7
:1006D0000100086008460068012808D10E4800683B
:1006E00028B90E480068C0F101000C4908600948AB
:1006F000006838B908480068012803D141F2883001
:10070000FFF790FF034800680349086000BD000040
:10071000FC530240040000200800002000000020DC
:10072000400700000000002010000000FC03000053
:100730005007000010000020000400001804000012
:1007400000000000000000000000000040787D0173
:04000005000003C133
:00000001FF
