:020000040000FA
:10000000080400205D04000065040000670400008F
:10001000690400006B0400006D0400000000000093
:100020000000000000000000000000006F0400005D
:10003000710400000000000073040000750400005B
:1000400077040000790400007B0400007D040000B8
:100050007F04000081040000830400008504000088
:100060008704000089040000000000000000000078
:100070000000000000000000000000000000000080
:100080000000000000000000000000000000000070
:100090000000000000000000000000000000000060
:1000A0000000000000000000000000000000000050
:1003C00000F002F800F03AF80AA090E8000C82442D
:1003D0008344AAF10107DA4501D100F02FF8AFF20A
:1003E000090EBAE80F0013F0010F18BFFB1A43F013
:1003F000010318475402000074020000103A24BFA1
:1004000078C878C1FAD8520724BF30C830C144BF79
:1004100004680C60704700000023002400250026BB
:10042000103A28BF78C1FBD8520728BF30C148BF57
:100430000B6070471FB51FBD10B510BDDFF80CD0A5
:10044000FFF7F8FF00F0BEF800F027F808040020DE
:1004500003B4FFF7F1FF03BC00F02AF80B48804714
:100460000B480047FEE7FEE7FEE7FEE7FEE7FEE794
:10047000FEE7FEE7FEE7FEE7FEE7FEE7FEE7FEE754
:10048000FEE7FEE7FEE7FEE7FEE70000A505000049
:10049000C103000070477047704710B50446AFF3C2
:1004A00000802046BDE81040FFF7D2BF7047000033
:1004B00001491820ABBEFEE726000200094800688B
:1004C00040F00100074908600748006840F01C0040
:1004D000054908600548006840F01C0003490860B1
:1004E0007047000008E60F40004400401C450040F3
:1004F0000E48006840F010000C4908600C480D4997
:100500000860081D006840F01F00091D08600A48C7
:10051000006820F00300084908600648001F0068D2
:1005200040F003000349091F0860704708E60F40C8
:100530004B434F4C204502400044024002490968A9
:1005400001F0130070470000FC43024000204FF010
:10055000E02108616FF07F4048610020886105203C
:1005600008617047411E4FF0E02251610021916106
:1005700000BF4FF0E021096901F480310029F8D073
:100580007047000010B50346002403E00448FFF75D
:10059000E9FF641C03EB8300A042F7D810BD000004
:1005A00000D4300003480449086004480449086046
:1005B000704700000000000008ED00E040787D0179
:1005C00004000020FFF77AFFFFF792FFFFF7BEFF5E
:1005D000084C0EE00849206808606068FFF7D2FF09
:1005E000FFF7ACFF0549086004F10800096850F8FE
:1005F0002140EFE700060000FC430040000000201F
:1006000004000000010000000006000000060000D9
:1006100018060000000600000800000001000000AD
:100620001806000000060000180600003006000052
:10063000100000000100000030060000000600006D
:1006400030060000300600006806000000000020B0
:1006500008000000FC0300007006000008000020F5
:1006600000040000180400000000000040787D0134
:040000050000045D96
:00000001FF
