:020000040000FA
:10000000100400205D040000650400006704000087
:10001000690400006B0400006D0400000000000093
:100020000000000000000000000000006F0400005D
:10003000710400000000000073040000750400005B
:1000400077040000790400007B0400007D040000B8
:100050007F04000081040000830400008504000088
:100060008704000089040000000000000000000078
:100070000000000000000000000000000000000080
:100080000000000000000000000000000000000070
:100090000000000000000000000000000000000060
:1000A0000000000000000000000000000000000050
:1003C00000F002F800F03AF80AA090E8000C82442D
:1003D0008344AAF10107DA4501D100F02FF8AFF20A
:1003E000090EBAE80F0013F0010F18BFFB1A43F013
:1003F000010318477409000094090000103A24BF53
:1004000078C878C1FAD8520724BF30C830C144BF79
:1004100004680C60704700000023002400250026BB
:10042000103A28BF78C1FBD8520728BF30C148BF57
:100430000B6070471FB51FBD10B510BDDFF80CD0A5
:10044000FFF7F8FF00F0A0F900F024F810040020F6
:1004500003B4FFF7F1FF03BC00F026F80B48804718
:100460000B480047FEE7FEE7FEE7FEE7FEE7FEE794
:10047000FEE7FEE7FEE7FEE7FEE7FEE7FEE7FEE754
:10048000FEE7FEE7FEE7FEE7FEE700006907000083
:10049000C103000010B50446AFF300802046BDE85C
:1004A0001040FFF7D5BF704701491820ABBEFEE7EB
:1004B000260002002248006840F009002049086038
:1004C0002048006840F03C001E4908601E48006853
:1004D00020F03C001C4908601A48103000681B4995
:1004E0000840184910310860002017492031086081
:1004F00014490C3108601648006820F00F001549B7
:10050000C1F8FC031448006840F00F00124908606D
:100510000F48001D006820F00F000D49091D0860FC
:100520000D48103000686FF30F000B491031086060
:100530000020091F0860044920310860704700004E
:1005400008E60F401C45004000440040FF0000FF4B
:10055000FC730040007000401C75004070B50246FE
:10056000002515600020144B21E0144E1D683560F5
:10057000351F2D6825F00F05114EC6F8FC530121DB
:1005800000E0491C0A29FCDD0E4D2D68C5F38304EB
:10059000002109E004F0010525B91D1D685C1568FE
:1005A0006D1C15606410491C0329F3DD08331D68B8
:1005B000002DDAD170BD0000400D00000074004035
:1005C00000700040FC43004000B5FFF773FF024895
:1005D00000F094F800BD0000801A06001B48006877
:1005E00040F01200194908601948006840F0FF0007
:1005F0001749086000201749086016492031086033
:1006000013492031086013491C310860114810302B
:10061000006840F0FF000F49103108600E480F4994
:100620000860081D006840F01F00091D08600C48A4
:10063000006840F003000A4908600848001F00688D
:1006400040F003000549091F0860704708E60F40A5
:10065000005400400C5500404B434F4C2045024095
:10066000004402400E48006840F020000C49086039
:100670000C480D490860081D006840F01F00091D66
:1006800008600A48006840F00E0008490860064803
:10069000001F006840F00E000349091F0860704702
:1006A00008E60F404B434F4C205502400054024097
:1006B00038B56846FFF752FF044608480078844280
:1006C00007D00098012804D105480470034804703D
:1006D00002E000200149087038BD00000100002040
:1006E0000000002000204FF0E02108616FF07F4003
:1006F00048610020886105200861704700214FF0A3
:10070000E0221161411E5161002191610649096891
:1007100021F07F4141F08041034A116007214FF0F1
:10072000E02211617047000020ED00E0411E4FF013
:10073000E02251610021916100BF4FF0E021096981
:1007400001F480310029F8D07047000010B503464D
:10075000002403E00348FFF7E9FF641C9C42F9D33F
:1007600010BD000000D4300003480449086004486C
:1007700004490860704700000000000008ED00E038
:1007800040787D010C000020FFF728FFFFF71CFFD9
:10079000FFF768FFFFF7A6FF704C02207049086062
:1007A00001207049C1F8FC03D6E0FFF781FF6E48D5
:1007B00000780028F8D06C480078312825D12068CE
:1007C000FF2809D86948006820F0030067490860DD
:1007D00067492068086008E00020654908602088B3
:1007E000C0F301206349C1F8FC035D4960690860FA
:1007F000D4E90A21104600F0BFF80546FFF7A6FF2E
:10080000246B202058490870A6E057480078322809
:1008100025D16068FF2809D85448006820F00300FB
:100820005249086052496068086008E00020504959
:100830000860A088C0F301204E49C1F8FC03484974
:10084000A0690860D4E90A21104600F095F8054631
:10085000FFF77CFF646B2020434908707CE042482E
:100860000078332825D1A068FF2809D83F480068C0
:1008700020F003003D4908603D49A068086008E099
:1008800000203B4908602089C0F301203949C1F8A4
:10089000FC033349E0690860D4E90A21104600F0FE
:1008A0006BF80546FFF752FFA46B20202E49087015
:1008B00052E02D480078412825D1E068FF2809D86A
:1008C0002A48006820F00300284908602849E068A9
:1008D000086008E0002026490860A089C0F30120D4
:1008E0002449C1F8FC031E49206A0860D4E90A21A2
:1008F000104600F041F80546FFF728FFE46B202082
:100900001949087028E018480078422824D1206945
:10091000FF2809D81548006820F003001349086033
:1009200013492069086008E0002011490860208A06
:10093000C0F301200F49C1F8FC030949606A08604F
:10094000D4E90A21104600F017F80546FFF7FEFE2D
:10095000246C20200449087027E70000700A00007A
:10096000FC5302400050004000000020FC430240C5
:10097000FC530040004002404FEA1153A3F580634E
:10098000D3F11E03A8BFD3F1200C08DB4FF00042C7
:1009900042EAC12252EA505232FA03F07047094249
:1009A0000BD4102BC4BF0020704703F5787CBCF13A
:1009B000FF3F05D04FF0FF3070474FF00000704709
:1009C00070B500F006F800BF4992248000207047FF
:1009D000F0E70EF1020E2EF0030E5EF8046B3642C5
:1009E00005D4012A43EB030515F5001F12D8012891
:1009F00041EB010C1CF5001F0CD80ED14FEAD17C45
:100A000015F5001F0CEB4C0C0CF1020C08BF4CEB65
:100A1000D37C04E04FF0080C01E04FEAD37C0CEBF0
:100A20004C0526FA05F606F00706B6F1040C06D2C8
:100A30000EEB860CBDE870404CF0010C6047DFE81F
:100A40000CF0090B02024FF000414FF00000A1F53D
:100A5000002170BD19461046012851EB010418BF52
:100A6000D4F5001484BF002001F0004170BD0000E7
:100A7000020000000400000020000000010000004F
:100A80000100000002000000020000000800000059
:100A9000020000000200000000000000000008400A
:100AA000B80A0000000B0000D80B0000700A00001C
:100AB000700A0000000000000400000008000000B0
:100AC00080000000020000000100000002000000A1
:100AD0000200000008000000020000000200000008
:100AE0000000000000000840000B0000480B000060
:100AF000200C0000B80A0000700A0000000000008E
:100B00000800000010000000800000000400000049
:100B100001000000020000000200000008000000C8
:100B20000200000002000000000000000000084079
:100B3000480B0000900B0000680C0000000B000048
:100B4000700A0000000000001000000020000000FB
:100B50000001000008000000010000000200000089
:100B60000800000008000000020000000200000071
:100B70000000000000000840900B0000D80B0000AF
:100B8000B00C0000480B0000700A000000000000DC
:100B900020000000400000000002000010000000E3
:100BA000010000000800000008000000080000002C
:100BB00002000000020000000000000000000840E9
:100BC000D80B0000200C0000F80C0000900B000077
:100BD000700A00000000000020000000200000005B
:100BE0002000000001000000010000000C000000D7
:100BF0000C0000000C0000000200000002000000D9
:100C00000000000000000840D80B0000D80B0000D6
:100C1000D80B0000700A0000700A000000000000FD
:100C20004000000040000000400000000100000003
:100C3000010000000C0000000C0000000C0000008F
:100C40000400000002000000000000000000084056
:100C5000200C0000200C0000200C0000700A000096
:100C6000700A00000000000080000000800000000A
:100C70008000000001000000010000000C000000E6
:100C80000C0000000C000000040000000200000046
:100C90000000000000000840680C0000680C000024
:100CA000680C0000700A0000700A000000000000DC
:100CB0000001000000010000000100000100000030
:100CC000010000000C0000000C0000000C000000FF
:100CD00004000000020000000000000000000840C6
:100CE000B00C0000B00C0000B00C0000700A000056
:100CF000700A000000000000000200000002000076
:100D00000002000001000000010000000C000000D3
:100D10000C0000000C0000000400000002000000B5
:100D20000000000000000840F80C0000F80C000073
:100D3000F80C0000700A0000700A000000000000BB
:100D400001000000313233410200000034353642E8
:100D50000400000037383943080000002A302344DB
:100D60000000000020202020880D0000000000204E
:100D700010000000FC030000980D0000100000208F
:100D80000004000018040000000000000000000043
:080D90000000000040787D0125
:04000005000003C133
:00000001FF
