:020000040000FA
:10000000080400205D04000065040000670400008F
:10001000690400006B0400006D0400000000000093
:100020000000000000000000000000006F0400005D
:10003000710400000000000073040000750400005B
:1000400077040000790400007B0400007D040000B8
:100050007F04000081040000830400008504000088
:100060008704000089040000000000000000000078
:100070000000000000000000000000000000000080
:100080000000000000000000000000000000000070
:100090000000000000000000000000000000000060
:1000A0000000000000000000000000000000000050
:1003C00000F002F800F03AF80AA090E8000C82442D
:1003D0008344AAF10107DA4501D100F02FF8AFF20A
:1003E000090EBAE80F0013F0010F18BFFB1A43F013
:1003F00001031847B8010000D8010000103A24BFDB
:1004000078C878C1FAD8520724BF30C830C144BF79
:1004100004680C60704700000023002400250026BB
:10042000103A28BF78C1FBD8520728BF30C148BF57
:100430000B6070471FB51FBD10B510BDDFF80CD0A5
:10044000FFF7F8FF00F0ACF800F027F808040020F0
:1004500003B4FFF7F1FF03BC00F02AF80B48804714
:100460000B480047FEE7FEE7FEE7FEE7FEE7FEE794
:10047000FEE7FEE7FEE7FEE7FEE7FEE7FEE7FEE754
:10048000FEE7FEE7FEE7FEE7FEE70000BD04000032
:10049000C103000070477047704710B50446AFF3C2
:1004A00000802046BDE81040FFF7D2BF7047000033
:1004B00001491820ABBEFEE72600020003480449AC
:1004C000086004480449086070470000000000000C
:1004D00008ED00E040787D01000000200446002384
:1004E00036E0A3420EDA08201A4908601A4800F0E4
:1004F00037F800201949C1F8FC03174800F030F81C
:100500005B1C25E0600098420EDD04201149086064
:10051000114800F025F800201049C1F8FC030E48EE
:1005200000F01EF85B1C13E004EB440098420EDD63
:10053000022008490860084800F012F80020074926
:10054000C1F8FC03044800F00BF85B1C00E000233A
:10055000C7E70000FC530240C0C62D000050024017
:10056000002100E0491C8142FCDB7047094800681B
:1005700040F02000074908600748006840F00E007E
:10058000054908600548006840F00E00034908600E
:100590007047000008E60F40005402401C5502401E
:1005A0000424FFF7E3FF2046FFF798FFCC05000087
:1005B0000000002004000000FC030000D005000043
:1005C00004000020040400001804000040787D01AD
:040000050000045D96
:00000001FF
