:020000040000FA
:10000000200400205D040000650400006704000077
:10001000690400006B0400006D0400000000000093
:100020000000000000000000000000006F0400005D
:10003000710400000000000073040000750400005B
:1000400077040000790400007B0400007D040000B8
:100050007F04000081040000830400008504000088
:100060008704000089040000000000000000000078
:100070000000000000000000000000000000000080
:100080000000000000000000000000000000000070
:100090000000000000000000000000000000000060
:1000A0000000000000000000000000000000000050
:1003C00000F002F800F03AF80AA090E8000C82442D
:1003D0008344AAF10107DA4501D100F02FF8AFF20A
:1003E000090EBAE80F0013F0010F18BFFB1A43F013
:1003F000010318475403000074030000103A24BF9F
:1004000078C878C1FAD8520724BF30C830C144BF79
:1004100004680C60704700000023002400250026BB
:10042000103A28BF78C1FBD8520728BF30C148BF57
:100430000B6070471FB51FBD10B510BDDFF80CD0A5
:10044000FFF7F8FF00F00AF900F027F82004002079
:1004500003B4FFF7F1FF03BC00F02AF80B48804714
:100460000B480047FEE7FEE7FEE7FEE7FEE7FEE794
:10047000FEE7FEE7FEE7FEE7FEE7FEE7FEE7FEE754
:10048000FEE7FEE7FEE7FEE7FEE70000C905000025
:10049000C103000070477047704710B50446AFF3C2
:1004A00000802046BDE81040FFF7D2BF7047000033
:1004B00001491820ABBEFEE7260002001148006883
:1004C00040F021000F4908600F48006820F06000EC
:1004D0000D4908600846006840F01C0008600B48A1
:1004E000006840F07C00094908600948006840F055
:1004F0000E00074908600748006840F00E000549F3
:100500000860704708E60F40004400401C4500406A
:10051000005402401C55024000B52448006800F019
:10052000600303F040002249086003F020002149E5
:1005300008601F480068402808D11F48006828B993
:100540001E480068C0F101001C4908601848006896
:1005500038B919480068402803D141F2883000F0CA
:1005600043F81348006814490860144800680128DB
:100570001BD110480068202808D11148006828B90C
:1005800010480068C0F101000E4908600948006881
:1005900038B90B480068202803D141F2883000F0B8
:1005A00023F8044800680649086000BDFC43004089
:1005B00008000020100000200C0000200000002097
:1005C0001400002004000020034804490860044887
:1005D00004490860704700000000000008ED00E0DA
:1005E00040787D0118000020002100E0491C814274
:1005F000FCDB704700B51DE0FFF78EFF1248006876
:10060000012803D111480068012800D01AE0082011
:100610000F49086002200F49C1F8FC030E48FFF79C
:10062000E3FF00200A4908600A49C1F8FC030A48B0
:10063000FFF7DAFF04480068012803D10348006887
:100640000128D9D000BF00BD000000200400002018
:10065000FC4300400050024020A10700FFF72EFF9E
:1006600003E0FFF759FF00F05BF8FAE770B5254C9F
:10067000254D6E1004202549086008202449C1F842
:10068000FC032046FFF7B0FF32E0FFF745FF2148AB
:100690000068012803D120480068012800D12FE01C
:1006A00004201E4908602846FFF79EFF02201849D3
:1006B000C1F8FC033046FFF797FF1020134908608C
:1006C0002046FFF791FF08204FF04021C1F8FC03BE
:1006D0002846FFF789FF04200C4908603046FFF7E1
:1006E00083FF08200A49C1F8FC032046FFF77CFF7E
:1006F00008480068012803D1074800680128C4D1D0
:1007000000BF70BDC0E1E40080969800FC4300404B
:10071000005002400000002004000020FC53024072
:1007200000B507480068012808D10648006801287C
:1007300002D0FFF79BFF01E0FFF75CFF00BD000068
:1007400000000020040000206807000000000020D6
:100750001C000000FC030000840700001C000020B7
:100760000404000018040000000000000000000065
:100770000000000000000000000000000000000079
:0407800040787D013F
:040000050000045D96
:00000001FF
