:020000040000FA
:10000000380400205D04000065040000670400005F
:10001000690400006B0400006D0400000000000093
:100020000000000000000000000000006F0400005D
:10003000710400000000000073040000750400005B
:1000400077040000790400007B0400007D040000B8
:100050007F04000081040000830400008504000088
:100060008704000089040000000000000000000078
:100070000000000000000000000000000000000080
:100080000000000000000000000000000000000070
:100090000000000000000000000000000000000060
:1000A0000000000000000000000000000000000050
:1003C00000F002F800F03AF80AA090E8000C82442D
:1003D0008344AAF10107DA4501D100F02FF8AFF20A
:1003E000090EBAE80F0013F0010F18BFFB1A43F013
:1003F00001031847F803000018040000103A24BF56
:1004000078C878C1FAD8520724BF30C830C144BF79
:1004100004680C60704700000023002400250026BB
:10042000103A28BF78C1FBD8520728BF30C148BF57
:100430000B6070471FB51FBD10B510BDDFF80CD0A5
:10044000FFF7F8FF00F022F900F027F83804002049
:1004500003B4FFF7F1FF03BC00F02AF80B48804714
:100460000B480047FEE7FEE7FEE7FEE7FEE7FEE794
:10047000FEE7FEE7FEE7FEE7FEE7FEE7FEE7FEE754
:10048000FEE7FEE7FEE7FEE7FEE70000C905000025
:10049000C103000070477047704710B50446AFF3C2
:1004A00000802046BDE81040FFF7D2BF7047000033
:1004B00001491820ABBEFEE7260002001148006883
:1004C00040F021000F4908600F48006820F06000EC
:1004D0000D4908600846006840F01C0008600B48A1
:1004E000006840F07C00094908600948006840F055
:1004F0000E00074908600748006840F00E000549F3
:100500000860704708E60F40004400401C4500406A
:10051000005402401C55024000B52448006800F019
:10052000600303F040002249086003F020002149E5
:1005300008601F480068402808D11F48006828B993
:100540001E480068C0F101001C4908601848006896
:1005500038B919480068402803D141F2883000F0CA
:1005600059F81348006814490860144800680128C5
:100570001BD110480068202808D11148006828B90C
:1005800010480068C0F101000E4908600948006881
:1005900038B90B480068202803D141F2883000F0B8
:1005A00039F8044800680649086000BDFC43004073
:1005B000200000202800002024000020000000204F
:1005C0002C0000200400002003480449086004486F
:1005D00004490860704700000000000008ED00E0DA
:1005E00040787D01300000200848006820F01C00A1
:1005F0004FF04021C1F8FC030548D0F8FC0320F07F
:100600000E000349C1F8FC0370470000FC430040A2
:1006100000500240002100E0491C8142FCDB704791
:1006200000B516480068012810DA0820144908604F
:1006300002201449C1F8FC0313480068FFF7EAFFE1
:100640000E480068401C0D49086016E00B48006821
:1006500002280FDA00200A4908600A49C1F8FC03A1
:1006600009480068FFF7D6FF04480068401C0349AA
:10067000086002E000200149086000BD1C00002065
:10068000FC4300400050024014000020FFF716FF1A
:1006900003E0FFF741FF00F08FF8FAE700B54048AC
:1006A000006801280FDA04203E4908603E49C1F87D
:1006B000FC033E480068FFF7ADFF39480068401C66
:1006C000374908606BE036480068022810DA0420D9
:1006D0003449086002203449C1F8FC0334480068FA
:1006E000FFF798FF2E480068401C2D49086056E02F
:1006F0002B480068032810DA10202A4908600220DD
:100700002949C1F8FC032B480068FFF783FF244800
:100710000068401C2249086041E021480068042824
:1007200010DA08201F49086002201F49C1F8FC03A5
:100730001E480068FFF76EFF19480068401C184902
:1007400008602CE016480068052810DA04201549D6
:10075000086002201449C1F8FC0315480068FFF73F
:1007600059FF0F480068401C0D49086017E00C480D
:100770000068062810DA04200A49086008200A499F
:10078000C1F8FC030B480068FFF744FF0448006809
:10079000401C0349086002E000200149086000BDD8
:1007A00018000020FC430040005002400C000020D4
:1007B000100000200800002000B50A480068012849
:1007C00009D109480068012802D0FFF767FF07E058
:1007D000FFF726FF04E0FFF707FF0020024908604B
:1007E00000BD000000000020040000200C080000F4
:1007F0000000002034000000FC030000400800005E
:100800003400002004040000180400000000000070
:1008100000000000404B4C0080841E0040420F004E
:1008200020A1070000000000000000000000000000
:1008300000000000000000000000000040787D0182
:040000050000045D96
:00000001FF
