:020000040000FA
:1000000008100020750400007D0400007F0400003B
:10001000810400008304000085040000000000004B
:100020000000000000000000000000008704000045
:1000300089040000000000008B0400008D04000013
:100040008F04000091040000930400009504000058
:1000500097040000990400009B0400009D04000028
:100060009F040000A1040000000000000000000048
:100070000000000000000000000000000000000080
:100080000000000000000000000000000000000070
:100090000000000000000000000000000000000060
:1000A0000000000000000000000000000000000050
:1003C00000F002F800F044F80AA090E8000C824423
:1003D0008344AAF10107DA4501D100F039F8AFF200
:1003E000090EBAE80F0013F0010F18BFFB1A43F013
:1003F000010318470803000028030000103A24BF37
:1004000078C878C1FAD8520724BF30C830C144BF79
:1004100004680C60704700000023002400250026BB
:10042000103A28BF78C1FBD8520728BF30C148BF57
:100430000B6070471FB50348034900F019F88DE8B9
:100440000F001FBD08000020080C002010B510BDD3
:10045000DFF80CD0FFF7EEFF00F042F900F026F8CD
:100460000810002003B4FFF7F1FF03BC00F028F8E8
:1004700000F03DB80B4880470B480047FEE7FEE719
:10048000FEE7FEE7FEE7FEE7FEE7FEE7FEE7FEE744
:10049000FEE7FEE7FEE7FEE7FEE7FEE7FEE7FEE734
:1004A000FEE70000C1060000C103000010B50446CD
:1004B000AFF300802046BDE81040FFF7D3BF704780
:1004C00001491820ABBEFEE7260002000246C91C07
:1004D00021F00301D2E900031B1A8B4201D2002054
:1004E00070470144C91D21F00701116070472DE9D3
:1004F000F34F83B000274FF48074BA4603A8214617
:100500008DF80070FFF7E2FF5FEA000801D100F00C
:1005100082F82146404600F070F8060009D04FF0FE
:10052000010B4546C14616F8014B8FB15C2C16D025
:100530001CE008F108004146C8F800000020C8F897
:100540000400D8F800402070012005B0BDE8F08F0D
:10055000222C01D0272C0FD12746BA462CE0307828
:10056000222807D05C2805D0272803D0BC4203D11D
:10057000002721E0761C04464CB12FB9202C06D070
:10058000A4F10900042802D905F8014BCBE74D4539
:1005900002D1BAF1000F0FD052464946002005F8AB
:1005A000010B6846AFF300809DF8000070B14D4626
:1005B0004FF0000A0BF1010B002CB4D14FEA8B0174
:1005C00003A8FFF783FF040002D004E0A946EFE789
:1005D000002000F020F800204246C4F8008005E02A
:1005E00012F8011B11B9401C44F82020AA42F7D38D
:1005F000002144F820102146A7E71CB50446CDE9A8
:10060000000169461520ABBE08B100201CBD204684
:100610001CBD7047704710B500F00AF8BDE81040E7
:10062000AFF30080002801D0FFF74ABF70470000F9
:1006300010B5012805D0002103A000F021F8012009
:1006400010BD09A1F8E7000053494752544D454DEC
:100650003A204F7574206F662068656170206D6563
:100660006D6F7279000000003A2048656170206D5E
:10067000656D6F727920636F727275707465640056
:1006800070B505460C460A2000E06D1C00F011F81C
:1006900035B128780028F8D102E0641C00F009F890
:1006A00014B120780028F8D1BDE870400A20AFF3DB
:1006B000008008B569468DF800000320ABBE08BD78
:1006C0000348044908600448044908607047000072
:1006D0000000000008ED00E040787D0100000020EF
:1006E0004FF011004FF0C80101FB00F14FF01E0266
:1006F0000A444FF00A03B2FBF3F3FEE71C070000C5
:100700000000002004000000FC030000200700009F
:1007100004000020041000001804000040787D014F
:0400000500000000F7
:00000001FF
